:100000001CC100004BC1000049C1000047C10000F5
:1000100045C1000043C1000041C100003FC10000D4
:100020003DC100003BC1000039C1000037C10000E4
:1000300035C1000033C1000031C100002FC10000F4
:100040002DC100002BC1000029C1000027C1000004
:1000500025C1000023C1000021C10000D2C500005D
:100060001DC100009BC4000070C4000017C1000047
:1000700015C1000013C1000011C100000FC1000034
:100080000DC100000BC1000009C1000007C1000044
:1000900005C1000003C1000001C1000082C60000CC
:1000A000FDC00000FBC00000F9C00000F7C0000068
:1000B000F5C00000F3C00000F1C00000EFC0000078
:1000C000EDC00000EBC00000E9C00000E7C0000088
:1000D000E5C00000E3C00000E1C00000DFC0000098
:1000E000DDC000009B029E028D0291029702D502A4
:1000F000A202A602AC02B002B402BA02BE02C2025E
:10010000D502C802CC02D002080E740ED60E3C0FE7
:100110005710DE10551100002100240027002A008E
:100120002D003000330001010000040107010A0125
:1001300000002200250028002B002E003100340092
:1001400002010000050108010B0100000A0B020971
:100150000C0D0E0807030401000000000000000061
:10016000000000000000000000000000000000008F
:10017000000000000000121110000000000000004C
:10018000000000000000000000000000000000006F
:10019000000020002300260029002C002F00320040
:1001A0000001000003010601090105050505070519
:1001B00008080808020202020A0A080804040404E3
:1001C000010101010101010103030303030303030F
:1001D000040707070C0C0C0C0C0C0C0C020202029E
:1001E00006060606060606060B0B0B0B0B0B0B0B87
:1001F0000102102020080810204010204080020139
:10020000020108040201010204081020408080401D
:10021000201008040201800402018040201008041C
:1002200002010804020101020408102040800102BA
:100230000408102040807112B90C11241FBECFEFAA
:10024000D1E2DEBFCDBF00E00CBF26E0AAE1B5E001
:1002500001C01D92A93AB207E1F715E0A0E0B2E0B3
:10026000E8E1FFE200E00BBF02C007900D92AA3167
:10027000B107D9F711E0CCE1D1E000E006C0219749
:100280000109802FFE010E944E15CB31D10780E07D
:100290000807A9F70E94C90C0C947B17B1CECF9226
:1002A000DF92EF92FF920F931F93CF93DF936C0136
:1002B0007A018B01C0E0D0E0CE15DF0589F0D801CE
:1002C0006D918D01D601ED91FC910190F081E02DB1
:1002D000C6011995892B11F47E0102C02196ECCF3D
:1002E000C701DF91CF911F910F91FF90EF90DF90A9
:1002F000CF900895FC01538D448D252F30E0842F3D
:1003000090E0821B930B541710F0CF96089501973D
:100310000895FC01918D828D981761F0828DDF0127
:10032000A80FB11D5D968C91928D9F5F9F73928FE8
:1003300090E008958FEF9FEF0895FC01918D828DDD
:10034000981731F0828DE80FF11D858D90E00895AA
:100350008FEF9FEF0895FC01918D228D892F90E002
:10036000805C9F4F821B91098F739927089588EABB
:1003700095E0F1DF21E0892B09F420E0822F089538
:10038000FC01848DDF01A80FB11DA35ABF4F2C9132
:10039000848D90E001968F739927848FA689B78901
:1003A0002C93A089B1898C9180648C93938D848DDA
:1003B000981306C00288F389E02D80818F7D8083A9
:1003C0000895EF92FF920F931F93CF93DF93EC0169
:1003D00081E0888F9B8D8C8D981305C0E889F98901
:1003E000808185FD23C0F62E0B8D10E00F5F1F4F1F
:1003F0000F731127E02E8C8DE8120BC00FB607FC8F
:10040000FACFE889F989808185FFF5CFCE01B8DF81
:10041000F2CF8B8DFE01E80FF11DE35AFF4FF08202
:100420000B8FEA89FB898081806207C0EE89FF8992
:100430006083E889F98980818064808381E090E02D
:10044000DF91CF911F910F91FF90EF900895CF937F
:10045000DF93EC01888D8823C1F0EA89FB898081D4
:1004600085FD05C0A889B9898C9186FD0EC00FB69F
:1004700007FCF5CF808185FFF2CFA889B9898C91DF
:1004800085FFEDCFCE017CDFE8CFDF91CF910895DE
:1004900080E090E0892B19F06ADF811125C080E0AF
:1004A00090E0892B41F080E090E0892B21F00E94C0
:1004B000000081111CC080E090E0892B41F080E0B9
:1004C00090E0892B21F00E940000811113C080E090
:1004D00090E0892BA1F080E090E0892B81F00E94D0
:1004E000000081110AC008950E940000D8CF0E9428
:1004F0000000E1CF0E940000EACF0C9400000895B4
:1005000090E0FC013197E231F10508F04EC08827F8
:10051000EE58FF4F8F4F0C944E15809180008F77CF
:1005200003C0809180008F7D80938000089580912A
:100530008000877FF9CF84B58F7702C084B58F7D27
:1005400084BD08958091B0008F7703C08091B00082
:100550008F7D8093B0000895809190008F7707C0C1
:10056000809190008F7D03C080919000877F809361
:10057000900008958091A0008F7707C08091A0001F
:100580008F7D03C08091A000877F8093A000089595
:10059000809120018F7707C0809120018F7D03C05B
:1005A00080912001877F8093200108953FB7F894C0
:1005B00080918E0590918F05A0919005B091910545
:1005C00026B5A89B05C02F3F19F00196A11DB11DAE
:1005D0003FBFBA2FA92F982F8827820F911DA11DE9
:1005E000B11DBC01CD0142E0660F771F881F991F26
:1005F0004A95D1F7089585ED8093BC008091BC00A9
:1006000084FDFCCF10926705089540914105262F87
:1006100030E0240F311D21323105DCF420916705D3
:100620002430C9F4FC0180E090E0861758F4309142
:1006300041052191DC01A15EBA4FA30FB11D2C939E
:100640000196F3CF80914105680F6093410580E0EA
:10065000089581E0089582E0089508958FEF9FEF57
:1006600008958FEF9FEF089580911E0590E091957A
:10067000819591090895CF93DF931F921F92CDB773
:10068000DEB7CB01642F49835A83BFDF4981842FB2
:100690005A81952F0F900F90DF91CF910895CF93AE
:1006A000DF931F92CDB7DEB7698361E0CE0101967B
:1006B000ACDF81E090E00F90DF91CF910895089535
:1006C00080E090E00895DC01ED91FC910190F081D3
:1006D000E02D19946115710579F0FB01019000205E
:1006E000E9F73197AF01461B570BDC01ED91FC9107
:1006F0000280F381E02D199480E090E008954F92FC
:100700005F926F927F92EF92FF920F931F93CF931E
:10071000DF93CDB7DEB7A1970FB6F894DEBF0FBE5B
:10072000CDBF7C01FA01CB0119A2223008F42AE0E6
:100730008E010F5D1F4F422E512C612C712CBF0179
:10074000A30192010E942C15F901CA01015011095F
:100750006A3014F4605D01C0695CD8016C93232B8E
:10076000242B252B61F7B801C701B4DFA1960FB682
:10077000F894DEBF0FBECDBFDF91CF911F910F91D7
:10078000FF90EF907F906F905F904F9008954F9201
:100790005F926F927F928F929F92AF92BF92CF9211
:1007A000DF92EF92FF92CF93DF93EC016A017B011E
:1007B000B22E9A01AB01C701B6010E942815882309
:1007C00019F066E572E027C026013701E89477F852
:1007D0002FEF3FEF4FE75FE7C301B2010E942815FB
:1007E00081110DC02FEF3FEF4FE75FE7C301B2016B
:1007F0000E94121318161CF46AE572E00CC02FEF69
:100800003FEF4FE75FE4C701B6010E9424151816B9
:1008100094F46EE572E0CE01DF91CF91FF90EF90FE
:10082000DF90CF90BF90AF909F908F907F906F9010
:100830005F904F904FCF2FEF3FEF4FE75FECC70137
:10084000B6010E94121387FDE4CF20E030E0A90139
:10085000C701B6010E94121387FF09C06DE2CE01E5
:1008600032DF4C01F7FAF094F7F8F09402C0812CD3
:10087000912CA12C60E070E080E09FE3AB1441F08C
:1008800020E030E040E251E40E949014A394F6CFBF
:100890009B01AC01C701B6010E942C142B013C0145
:1008A0000E94F8146B017C010E9416139B01AC019D
:1008B000C301B2010E942B142B013C012AE0B701B5
:1008C000A601CE011CDF7C01E80CF91CBB2029F03D
:1008D0006EE2CE01F8DEE80EF91EDB2CDD2021F100
:1008E00020E030E040E251E4C301B2010E947713FE
:1008F0002B013C010E94F8144B01A12CB12C2AE0E1
:10090000B501A401CE01FBDEE80EF91EC501B4015C
:100910000E9416139B01AC01C301B2010E942B146B
:100920002B013C01DA94DACFC701DF91CF91FF9020
:10093000EF90DF90CF90BF90AF909F908F907F907F
:100940006F905F904F900895C5CE1F920F920FB693
:100950000F9211240BB60F922F933F934F935F93F7
:100960006F937F938F939F93AF93BF93EF93FF9377
:1009700088EA95E005DDFF91EF91BF91AF919F91DE
:100980008F917F916F915F914F913F912F910F9038
:100990000BBE0F900FBE0F901F9018951F920F92D5
:1009A0000FB60F9211240BB60F922F938F939F9334
:1009B000EF93FF93E091B805F091B9058081E09144
:1009C000BE05F091BF0582FD12C090818091C105E6
:1009D0008F5F8F732091C205821751F0E091C1059E
:1009E000F0E0E855FA4F958F8093C10501C08081F2
:1009F000FF91EF919F918F912F910F900BBE0F90D0
:100A00000FBE0F901F901895CF93DF93282F30E0E3
:100A1000F901E65BFE4F8491F901E051FE4FD4915C
:100A2000F901E655FE4FC491CC2389F0811168DDB0
:100A3000EC2FF0E0EE0FFF1FE057FE4FA591B491B1
:100A4000EC91ED2381E090E021F480E002C080E0B1
:100A500090E0DF91CF9108951F93CF93DF93282FDC
:100A600030E0F901E65BFE4F8491F901E051FE4F61
:100A7000D491F901E655FE4FC491CC23C1F0162F55
:100A800081113EDDEC2FF0E0EE0FFF1FE05DFE4F29
:100A9000A591B4918FB7F894111105C09C91ED2FD9
:100AA000E095E92302C0EC91ED2BEC938FBFDF9131
:100AB000CF911F910895CF93DF93EC0160E08E8179
:100AC000CBDF61E08E81C8DF60E08E81C5DF8BE81F
:100AD00091E00197F1F7DF91CF910895CF93DF93E4
:100AE00090E0FC01E051FE4F2491FC01E655FE4FE1
:100AF0008491882361F190E0880F991FFC01EA5EE0
:100B0000FE4FC591D491FC01E05DFE4FA591B491DB
:100B1000611109C09FB7F89488812095822388834A
:100B2000EC912E230BC0623061F49FB7F8943881AA
:100B3000822F809583238883EC912E2B2C939FBF4B
:100B400006C08FB7F894E8812E2B28838FBFDF91E2
:100B5000CF910895863308F0865390917B00282F1B
:100B60002870977F922B90937B008770806480938E
:100B70007C0080917A00806480937A0080917A0072
:100B800086FDFCCF809178002091790090E0922B37
:100B900008958F929F92AF92BF92CF92DF92EF9281
:100BA000FF926B017C0102DD4B015C01C114D10499
:100BB000E104F104E9F0FADCDC01CB0188199909C0
:100BC000AA09BB09883E9340A105B10578F321E04D
:100BD000C21AD108E108F10888EE880E83E0981E59
:100BE000A11CB11CC114D104E104F10421F7DECF32
:100BF000FF90EF90DF90CF90BF90AF909F908F903D
:100C000008951F920F920FB60F9211242F933F93C6
:100C10008F939F93AF93BF938091A4059091A50567
:100C2000A091A605B091A70530918D0523E0230F73
:100C30002D3720F40196A11DB11D05C026E8230F14
:100C40000296A11DB11D20938D058093A40590935C
:100C5000A505A093A605B093A70580918E05909158
:100C60008F05A0919005B09191050196A11DB11D30
:100C700080938E0590938F05A0939005B093910576
:100C8000BF91AF919F918F913F912F910F900FBE88
:100C90000F901F901895CF92DF92EF92FF920F93D3
:100CA0001F93CF93DF937C016C0187E0C80ED11CAA
:100CB000C0E0D0E0062F10E0B8010C2E02C0759500
:100CC00067950A94E2F76170F60181916F01C4DEC5
:100CD0002196C430D10581F7C701DF91CF911F91D3
:100CE0000F91FF90EF90DF90CF90E5CECF92DF9203
:100CF000EF92FF920F931F93CF93DF93EC01F62EA9
:100D0000642F8C81A9DE8D818F3F11F060E0A4DE1D
:100D10008F850F2D10E084FF23C06E0187E0C80E81
:100D2000D11CE12CF12CB8010E2C02C075956795F1
:100D30000A94E2F76170F60181916F018DDEFFEF99
:100D4000EF1AFF0A88E0E816F10469F7CE01DF9197
:100D5000CF911F910F91FF90EF90DF90CF90ABCE8E
:100D6000B80184E0759567958A95E1F7CE0193DF28
:100D70006F2DCE01DF91CF911F910F91FF90EF90DA
:100D8000DF90CF9088CF41E0B1DF81E090E008951F
:100D900040E0ACCF61E0FCDF8BE39FE10197F1F72E
:100DA00008951F920F920FB60F9211240BB60F9257
:100DB0002F933F934F935F936F937F938F939F9363
:100DC000AF93BF93EF93FF938091B900887F8036F4
:100DD00009F49CC068F5883209F45BC090F4803156
:100DE00009F454C038F4882309F4F6C0883009F4B3
:100DF0004DC0F5C0883109F44CC0803209F45DC0A3
:100E0000EEC0803409F468C048F4803309F455C05A
:100E1000883309F0E4C080936605D8C0803509F4B2
:100E20004FC0883509F45DC0883409F0D8C0D6C0F9
:100E3000883909F4C7C0A8F4883709F467C038F4C2
:100E4000883609F463C0803709F460C0C8C08838A8
:100E500009F4B8C0803909F45FC0803809F0BFC018
:100E60005BC0803B09F486C038F4803A09F466C060
:100E7000883A09F47FC0B3C0803C09F4A7C0883C1D
:100E800009F4A4C0883B09F48AC0A9C080918C05EC
:100E900010C090918B0580918A05981770F5E091AC
:100EA0008B0581E08E0F80938B05F0E0E659FA4FB9
:100EB00080818093BB0085EC86C0809366058EC0E0
:100EC000E0918B0581E08E0F80938B058091BB00B4
:100ED000F0E0E659FA4F808390918B0580918A0566
:100EE0006EC0E0918B0581E08E0F80938B05809121
:100EF000BB00F0E0E659FA4F8083809169058111CB
:100F00006DC081E08093680584EA61C083E08093CE
:100F1000670510926505CFCF80916505803208F096
:100F200051C0E091650581E08E0F80936505809149
:100F3000BB00F0E0EB5BFA4F8083BDCF85EC809384
:100F4000BC001092670580916505803230F4E09115
:100F50006505F0E0EB5BFA4F10826091650570E08B
:100F6000E0914305F091440585E495E019951092D0
:100F7000650535C084E080936705109242051092A4
:100F80004105E0913F05F09140051995809141059B
:100F9000811105C081E08093410510921F05E09109
:100FA000420581E08E0F80934205F0E0E15EFA4F4A
:100FB00080818093BB0090914205809141059817F4
:100FC00008F479CF85E88093BC0009C085EC809354
:100FD000BC001092670503C0109266050CDBFF9100
:100FE000EF91BF91AF919F918F917F916F915F91A1
:100FF0004F913F912F910F900BBE0F900FBE0F900E
:101000001F901895823391056CF0833C91056CF02C
:101010008C3721E0920764F08631934064F484E0D9
:1010200090E0089581E090E0089582E090E00895D6
:1010300083E090E008958FEF9FEF089560E080E0F7
:10104000D6D36CEA73E085E496E07EDC61E080E074
:10105000CED36CEA73E085E496E076DC80919A0565
:1010600080FD16C080919C0580FD07C060E080E097
:10107000BED360E085E496E086DE80919C0580FF2B
:1010800007C061E080E0B3D360E085E496E07BDEFA
:1010900080919A0580FF16C080919C0580FD07C055
:1010A00061E080E0A4D360E085E496E06CDE8091AE
:1010B0009C0580FF07C060E080E099D360E085E494
:1010C00096E061CE08951F93CF93DF93C0919A0568
:1010D000D0919B05219685E496E05CDE60E081E09E
:1010E00086D380919A0590919B0516E0189FF00198
:1010F000199FF00D1124E159F94F44815581608108
:10110000718185E496E0CBD861E081E070D3809175
:101110009A0590919B050196189FF001199FF00D7B
:101120001124E159F94F448155816081718185E431
:1011300096E0B5D862E672E088EA95E005DCCE017B
:1011400096D380919A0590919B05009729F461E0D0
:101150008FE04DD362E014C018161906BCF4853038
:10116000910544F461E08FE042D362E085E496E0CB
:101170000ADE02C0059751F460E08FE038D361E0E9
:1011800085E496E0DF91CF911F91FDCDDF91CF9166
:101190001F910895CF92DF92EF92FF9261E083E377
:1011A0005BDC6AE070E080E090E0F3DC83E4D2DCBA
:1011B000BC01990F880B990B0E9418136B017C01DD
:1011C00060931A0570931B0580931C0590931D0571
:1011D00060E083E341DCC701B601FF90EF90DF9050
:1011E000CF900895CF92DF92EF92FF92CF930AD2E1
:1011F0008823A1F1809163068B3041F178F185510C
:10120000823060F560915D0670E080E090E00E94C1
:10121000161320E030E040E853E40E9477136B019E
:101220007C0180915E06682F70E080E090E00E9473
:1012300018139B01AC01C701B6010E942C142DECC0
:101240003CEC4CEC5DE30E9477130CC060915D06B2
:1012500070E080E090E00E94161304C060E070E04F
:1012600080EC9FE7609392057093930580939405BB
:1012700090939505C7D18823D1F1809163068B3077
:1012800029F0A8F18551823048F031C060915F06A5
:1012900070E080E090E00E9416132DC0C0915F06C0
:1012A0006C2F6F7770E080E090E00E94181320E0D0
:1012B00030E040E853E40E9477136B017C01809199
:1012C0006006682F70E080E090E00E9418139B0198
:1012D000AC01C701B6010E942C142DEC3CEC4CEC87
:1012E0005DE30E947713C7FF06C0905804C060E01A
:1012F00070E080EC9FE7609396057093970580936C
:101300009805909399059B01AC010E9428158111C5
:101310000EC0609192057091930580919405909113
:1013200095059B01AC010E942815882319F082E8DD
:1013300092E027C06EEA72E088EA95E005DB409112
:10134000920550919305609194057091950588EAF6
:1013500095E045D16BEB72E088EA95E0F5DA6FEB4A
:1013600072E088EA95E0F0DA409196055091970591
:10137000609198057091990588EA95E030D18DECDF
:1013800092E0CF91FF90EF90DF90CF902AC10E9422
:101390006717EF92FF920F931F93CF93DF93EC01A8
:1013A000198218821B821A821D821C8261157105A6
:1013B000A9F17B01FB0101900020E9F731978F0132
:1013C000061B170BB8016F5F7F4F80E090E00E9413
:1013D0008316009759F0998388831B830A832C8195
:1013E0003D81232B81F4FC0110820DC088819981FD
:1013F000009711F00E94EB15198218821D821C8241
:101400001B821A820BC01D830C83B701DF91CF9121
:101410001F910F91FF90EF900C947417DF91CF9173
:101420001F910F91FF90EF9008958F929F92AF922E
:10143000BF92CF92DF92EF92FF92CF93DF93A09172
:101440006406882311F03A2F01C030E080916506D0
:1014500090E0880F991F80579E4FC0906A06D090E9
:101460006B06E0906C06F0906D0640E050E0BA012B
:10147000FC01C591D49128812A2323130FC04A016E
:101480005B012FEF821A920AA20AB20A4C155D057F
:101490006E057F0538F4B501A401EACF342F252F5E
:1014A000CB0104C030E020E080E090E0632F722F99
:1014B000DF91CF91FF90EF90DF90CF90BF90AF90F2
:1014C0009F908F900895EF92FF920F931F93CF9369
:1014D000DF93EC01623018F08F8588608F876B8B0B
:1014E0001C8A80E48D8B80E18E8B80E58F8B61E0A0
:1014F0008C81F4DA8D818F3F11F061E0EFDA61E0E9
:101500008E81ECDA7E0187E0E80EF11C00E010E04D
:101510008F8584FD03C084E090E002C088E090E005
:101520000817190744F461E0F70181917F01D6DAC9
:101530000F5F1F4FEDCF8BE39DE00197F1F760E068
:101540008C818ADA60E08E8187DA8D818F3F11F09D
:1015500060E082DA6F8564FD19C063E0CE019BDB39
:101560000BE416E4C8010197F1F763E0CE0193DBC9
:10157000C8010197F1F763E0CE018DDB83E592E0CE
:101580000197F1F762E0CE0186DB13C06062CE0105
:10159000FFDB8BE496E40197F1F76F856062CE0183
:1015A000F7DB83E592E00197F1F76F856062CE018A
:1015B000EFDB6F856062CE01EBDB84E0888B6CE053
:1015C000CE01E6DBCE01E6DB82E0898B66E0CE0170
:1015D000DF91CF911F910F91FF90EF90D9CB22E037
:1015E000D6C8CF93DF93BC0188EA95E073D8EC01AD
:1015F0006BE374E088EA95E06DD88C0F9D1FDF9156
:10160000CF910895CF92DF92EF92FF920F931F93A5
:10161000CF93DF93CDB7DEB7C054D1400FB6F89467
:10162000DEBF0FBECDBF2FB7F8948091A405909177
:10163000A505A091A605B091A7052FBF409166060C
:101640005091670660916806709169068C019D0152
:10165000041B150B260B370BB901A801403D574061
:101660006105710518F480916E06B1C0809366061D
:1016700090936706A0936806B0936906109261067E
:101680001092600610925F0610925E0610925D0640
:1016900061E080916206E0D96AEF70E080E090E05E
:1016A00078DA61E08091620619DA60E08091620682
:1016B000D3D964E170E080E090E06BDAF89461E007
:1016C00080916206C9D98BE990E00197F1F762E059
:1016D0008091620603DA83E290E00197F1F780E0FF
:1016E000A4DE672B682B692B21F410926E06789488
:1016F0003BC081E09ADE672B682B692BB1F38E012A
:101700000F5F1F4F6E012FEBC21A2EEFD20A780126
:1017100080E08BDEF701608371838283938381E0B5
:1017200084DEF7016483758386839783F8E0EF0E88
:10173000F11CEC14FD0461F7789420E030E0F8012E
:101740004081518162817381C480D580E680F780B9
:10175000411551056105710529F0C114D104E10459
:10176000F10421F410926E0680E031C0F90183E0AB
:10177000F595E7958A95E1F7E35AF94F8081880F4F
:101780004C155D056E057F0508F4816080832F5F31
:101790003F4F085F1F4F2832310589F620916106BF
:1017A00030E040915D0680915E0690E0840F911DCF
:1017B00040915F06840F911D40916006840F911D3A
:1017C00099272817390771F681E080936E06C05C6F
:1017D000DE4F0FB6F894DEBF0FBECDBFDF91CF91C5
:1017E0001F910F91FF90EF90DF90CF90089564309C
:1017F00008F063E090915806691710F06FEF690FD9
:10180000E62FF0E0EB5BF94F9489682F690F606871
:1018100085E496E0BDCAEF92FF920F931F93CF939A
:10182000DF931F92CDB7DEB7162F877028E0829F17
:10183000C0011124682F606485E496E07983A8DAFA
:10184000E12E7981F72E8701085F1F4FF701619123
:101850007F0185E496E097DAE016F106B9F70F907C
:10186000DF91CF911F910F91FF90EF900895CF924C
:10187000DF92EF92FF92CF93DF936C01990FEE0806
:10188000FF08F7FE16C06DE288EA95E00E94630348
:10189000EC0144275527BA014C195D096E097F09EF
:1018A0002AE088EA95E00E947F037C01EC0EFD1E91
:1018B00008C02AE0B701A60188EA95E00E947F03EC
:1018C0007C016BE374E088EA95E00E946A038E0D68
:1018D0009F1DDF91CF91FF90EF90DF90CF90089503
:1018E000CF93DF93AB01BC0122E088EA95E00E9430
:1018F000C703EC016BE374E088EA95E00E946A0399
:101900008C0F9D1FDF91CF910895CF92DF92EF92C0
:10191000FF92CF93DF936C01990FEE08FF08F7FE5B
:101920001BC06DE288EA95E00E946303EC01442746
:101930005527BA014C195D096E097F092AE088EA2A
:1019400095E00E947F038C0F9D1FDF91CF91FF9048
:10195000EF90DF90CF9008952AE0B701A60188EAC2
:1019600095E0DF91CF91FF90EF90DF90CF900C94B6
:101970007F03CF93DF93C9E9D6E0269788819981C9
:101980000E94EB1586E0CF36D807B9F7DF91CF91EB
:101990000895789484B5826084BD84B5816084BDE7
:1019A00085B5826085BD85B5816085BD80916E00FD
:1019B000816080936E00109281008091810082602E
:1019C000809381008091810081608093810080916B
:1019D00080008160809380008091B100846080935A
:1019E000B1008091B00081608093B000809191003F
:1019F000826080939100809191008160809391003A
:101A0000809190008160809390008091A10082601D
:101A10008093A1008091A10081608093A1008091BA
:101A2000A00081608093A00080912101826080935A
:101A30002101809121018160809321018091200109
:101A400081608093200180917A00846080937A0085
:101A500080917A00826080937A0080917A00816020
:101A600080937A0080917A00806880937A00109247
:101A7000C100E091B805F091B90582E08083E09162
:101A8000B405F091B5051082E091B605F091B70567
:101A90008FEC80831092C005E091BC05F091BD05EC
:101AA00086E08083E091BA05F091BB05808180617A
:101AB0008083E091BA05F091BB05808188608083C6
:101AC000E091BA05F091BB05808180688083E09148
:101AD000BA05F091BB0580818F7D808386E33AD87B
:101AE000C6DE62E085E496E0EEDC85E496E052D95D
:101AF00062E0809162060E946E0580E398EFAFEF8E
:101B0000BFEF8093660690936706A0936806B09334
:101B1000690661E083E30E946E0560E083E30E9452
:101B20002C0560E083E40E946E0568E172E080E0CD
:101B300072DE60E172E081E06EDE68E072E082E019
:101B40006ADE60E072E083E066DE60E084E40E94CA
:101B50006E0560E085E40E946E0560E082E40E940C
:101B60006E0560E08EE30E946E0581ED92E039DD46
:101B700060E080E03CDE6EEE72E085E496E00E947C
:101B8000A40461E080E033DE6FEF72E085E496E06C
:101B90000E94A40468EB7BE080E090E00E94C9050D
:101BA00080E193E01EDD8FDA49DA80E00E94AA0529
:101BB0009093A3058093A205863193406CF464E66C
:101BC00070E080E090E00E94C90580E00E94AA05D4
:101BD0009093A3058093A2058091A2059091A305FF
:101BE00011DA8230910509F4ECC38330910509F4D0
:101BF00031C40197D1F6E0919C05F0919D05E73045
:101C0000F10508F067C48827EC57FF4F8F4F46C790
:101C100083E293E0E6DC85E496E0BCD860E080E017
:101C2000E6DD6EE373E085E496E00E94A40460E0E4
:101C300080E0DDDD6EE473E085E496E00E94A404BC
:101C400060E08FE0D4DD60E573E085E496E00E941B
:101C5000A40461E080E0CBDD62E573E085E496E01A
:101C60000E94A40461E08FE0C2DD60E674E085E4D8
:101C700096E00E94A40480E00E94AA059093A30528
:101C80008093A205AFDA61E089E0B1DD4091920571
:101C900050919305609194057091950585E496E0C7
:101CA0009EDC62E370E080E090E00E94C9058091D4
:101CB000A2059091A305863193406CF464E670E030
:101CC00080E090E00E94C90580E00E94AA05909300
:101CD000A3058093A2058091A2059091A30592D9B6
:101CE000049709F4F7C3C7CF8AE593E07ADC85E46B
:101CF00096E050D860E080E07ADD61E773E085E44B
:101D000096E00E94A40461E080E071DD62E573E08A
:101D100085E496E00E94A4043DDA3CDA20E030E855
:101D200044E554E4FDD520E030E048EC52E4DFD453
:101D30006B017C0161E089E05ADDB701A60185E411
:101D400096E04DDC61E08FE052DD60E674E085E412
:101D500096E00E94A4041EDAC3DDC701B601C0DD0F
:101D600062E370E080E090E00E94C90580E00E949C
:101D7000AA059093A3058093A205863193406CF445
:101D800064E670E080E090E00E94C90580E00E9477
:101D9000AA059093A3058093A2058091A205909136
:101DA000A30530D9049709F495C3B6CF82E893E030
:101DB00018DC85E496E00E94CA0660E080E017DD4A
:101DC0006FE873E085E496E00E94A40460E080E0A0
:101DD0000EDD6EE473E085E496E00E94A40460E00A
:101DE0008FE005DD60E573E085E496E00E94A404E1
:101DF0008EE30E940405EC0161E080E0C130D10572
:101E000021F4F5DC6FE973E003C0F1DC6EEA73E006
:101E100085E496E00E94A4048EE30E94AA0527DDD3
:101E20008EE30E94040523DDCE0121DD62E370E034
:101E300080E090E00E94C90580E00E94AA0590938E
:101E4000A3058093A205863193406CF464E670E0AC
:101E500080E090E00E94C90580E00E94AA0590936E
:101E6000A3058093A2058091A2059091A305CAD8ED
:101E7000049709F42FC3BCCF89EB93E0B2DB85E470
:101E800096E00E94CA0660E080E0B1DC69EC73E095
:101E900085E496E00E94A40460E080E0A8DC6EE4A3
:101EA00073E085E496E00E94A40460E08FE09FDC8C
:101EB00060E573E085E496E00E94A404C8E0D0E009
:101EC00000E010E084E40E94AA05080F191F219782
:101ED000C9F793E0169507959A95E1F728E0E22E69
:101EE000F12CC0E0D0E085E40E94AA05C80FD91FFC
:101EF00081E0E81AF108B9F783E0D695C7958A958D
:101F0000E1F7BE010D2E000C880B990B91D39B01BC
:101F1000AC0163E373E383E590E402D56B017C01DC
:101F2000B801012E000C880B990B82D39B01AC01E8
:101F3000C701B601DCD32B013C0124EA30E74DE7B1
:101F40005FE389D420E030E040E751E4D0D324E1DE
:101F50003EEA47EE5FE3E4D420E030E0A9017CD420
:101F60006B017C0120E030E0A9015CD387FF15C044
:101F700020E030E0A901C701B60166D5181624F0AB
:101F8000C701B601905802C0C701B60120E030E099
:101F9000A90162D44B015C0103C0812C912C540136
:101FA00067ED73E088EA95E00E94A404CE01ADDC01
:101FB00061EE73E088EA95E00E94A404C801A5DC04
:101FC0006EEE73E088EA95E00E94A404B301A201DA
:101FD00088EA95E004DB63E074E088EA95E00E941B
:101FE000A404B701A60188EA95E0F9DA65E174E096
:101FF00088EA95E00E94A404A5019401C701B601F6
:102000002BD46B017C01AB01BC0188EA95E0E7DAD7
:102010006EE274E088EA95E00E94A404B501A40190
:1020200088EA95E0DCDA6BE374E088EA95E00E94E8
:102030006A0361E083E0DBDB20E030E0A901C70157
:10204000B60102D5181624F0F7FAF094F7F8F094D8
:10205000B701A60185E496E0C2DA61E087E0C7DB5C
:102060006EE374E085E496E00E94A40480E00E94A0
:10207000AA059093A3058093A205863193406CF442
:1020800064E670E080E090E00E94C90580E00E9474
:10209000AA059093A3058093A2058091A205909133
:1020A000A3050E940208049709F414C207CF86E42E
:1020B00094E097DA85E496E00E94CA0660E080E04A
:1020C00096DB61E574E085E496E00E94A40460E09C
:1020D00080E08DDB6EE473E085E496E00E94A4046A
:1020E00060E08FE084DB60E573E085E496E00E94C9
:1020F000A40461E080E07BDB62E573E085E496E0C8
:102100000E94A404C0909E05D0909F05E090A00579
:10211000F090A10582E40E94AA05BC01990F880BEA
:10212000990B86D260939E0570939F058093A005BE
:102130009093A10561E089E05ADBB701A60185E42F
:1021400096E04DDA61E08EE052DB6FE574E085E405
:1021500096E00E94A404C701B601C2DB60919E050F
:1021600070919F058091A0059091A105B9DB64EF66
:1021700071E080E090E00E94C90580E00E94AA051D
:102180009093A3058093A205863193406CF464E696
:1021900070E080E090E00E94C90580E00E94AA05FE
:1021A0009093A3058093A2058091A2059091A30529
:1021B0000E940208049709F48DC1A4CF82E694E03E
:1021C00010DA85E496E00E94CA0660E080E00FDB4A
:1021D00063E774E085E496E00E94A40460E080E098
:1021E00006DB6EE473E085E496E00E94A40460E000
:1021F0008FE0FDDA60E573E085E496E00E94A404D8
:1022000061E080E0F4DA62E573E085E496E00E9444
:10221000A40461E08EE0EBDA63E085E496E00E94DE
:10222000C30661E08FE0E3DA6FEC72E085E496E0EC
:102230000E94A40480E00E94AA059093A3058093C5
:10224000A2050E94F20861E089E0D1DA409196058A
:1022500050919705609198057091990585E496E0F5
:10226000BED964E670E080E090E00E94C9058091EC
:10227000A2059091A305863193406CF464E670E06A
:1022800080E090E00E94C90580E00E94AA0590933A
:10229000A3058093A2058091A2059091A3050E94B9
:1022A0000208049709F416C1C5CF81E894E099D9D2
:1022B00085E496E00E94CA0660E080E098DA6CE867
:1022C00074E085E496E00E94A40460E080E08FDA88
:1022D0006EE473E085E496E00E94A40460E08FE081
:1022E00086DA60E573E085E496E00E94A404C0E02D
:1022F000D0E080E00E94AA059093A3058093A205F8
:1023000061E080E0209711F572DA64E974E085E419
:1023100096E00E94A4048EE994E063D96CE271E037
:1023200080E090E00E94C9058091A2059091A305EC
:102330008233910544F59BDA8EEA94E052D968EC39
:1023400070E080E090E00E94C9051BC050DA66ECA6
:1023500074E085E496E00E94A4048091A205909127
:10236000A305823391056CF482DA83ED94E039D9C8
:1023700068EC70E080E090E00E94C905C0E0D0E029
:1023800002C0C1E0D0E08091A2059091A305863102
:1023900093406CF464E670E080E090E00E94C90530
:1023A00080E00E94AA059093A3058093A2058091E6
:1023B000A2059091A3050E940208049709F099CF05
:1023C00089C020919A0530919B052115310591F422
:1023D00080919C0590919D0501978730910514F09F
:1023E00086E090E097FF02C080E090E090939D052A
:1023F00080939C0580919C0590919D0520FD11C0C6
:1024000080FD0FC0215031092630310514F025E040
:1024100030E037FF02C020E030E030939B0520938E
:102420009A0520919A0530919B0520FF11C080FFED
:102430000FC0215031092630310514F025E030E07D
:1024400037FF02C020E030E030939B0520939A05CF
:10245000019733C020919A0530919B0580919C058E
:1024600090919D0520FD11C080FF0FC02F5F3F4F51
:102470002630310514F025E030E037FF02C020E0BF
:1024800030E030939B0520939A0520919A05309176
:102490009B0520FF11C080FD0FC02F5F3F4F2630EE
:1024A000310514F025E030E037FF02C020E030E0D5
:1024B00030939B0520939A0501968730910514F07F
:1024C00086E090E097FF02C080E090E090939D0549
:1024D00080939C050E9463080E941E080E94480287
:1024E00062CBE8EAF5E01382128288EE93E0A0E086
:1024F000B0E084839583A683B7832AE232E03183F8
:10250000208325EC30E03587248724EC30E03787C2
:10251000268720EC30E0318B208B21EC30E0338BB0
:10252000228B22EC30E0358B248B26EC30E0378B8D
:10253000268B118E128E138E148EE9E9F6E013822B
:10254000128284839583A683B7838CE392E0918380
:1025500080836CEE74E08FE696E00E94C90969EF13
:1025600074E085E796E00E94C90966E075E08BE7B4
:1025700096E00E94C9096DEC73E081E896E00E9444
:10258000C90965E574E087E896E00E94C90965E736
:1025900074E08DE896E00E94C9096EE075E083E979
:1025A00096E00E94C909ADE5B6E085E315968C93E7
:1025B000159786E116968C931697E5E2F2E0E49182
:1025C0001796EC931797EFEDF1E0E4911896EC93E2
:1025D000189740E85EE360E070E01D964D935D93D0
:1025E0006D937C935097E5E4F6E0138212828EE4BB
:1025F00092E09183808388E084838FEF858389E0F4
:10260000868384E0878385E0808786E0818787E012
:1026100082871386148615861686178661E0CF0199
:102620000C94630A40D008F481E00895E89409C04E
:1026300097FB3EF490958095709561957F4F8F4FF5
:102640009F4F9923A9F0F92F96E9BB279395F6950B
:10265000879577956795B795F111F8CFFAF4BB0F89
:1026600011F460FF1BC06F5F7F4F8F4F9F4F16C0ED
:10267000882311F096E911C0772321F09EE8872F77
:10268000762F05C0662371F096E8862F70E060E033
:102690002AF09A95660F771F881FDAF7880F9695AC
:1026A000879597F90895990F0008550FAA0BE0E850
:1026B000FEEF16161706E807F907C0F01216130604
:1026C000E407F50798F0621B730B840B950B39F444
:1026D0000A2661F0232B242B252B21F408950A26AA
:1026E00009F4A140A6958FEF811D811D08950BD09F
:1026F00078C069D028F06ED018F0952309F05AC040
:102700005FC01124A2C07ED0A0F3959FD1F3950F96
:1027100050E0551F629FF001729FBB27F00DB11D65
:10272000639FAA27F00DB11DAA1F649F6627B00DF5
:10273000A11D661F829F2227B00DA11D621F739FDE
:10274000B00DA11D621F839FA00D611D221F749FEC
:102750003327A00D611D231F849F600D211D822F33
:10276000762F6A2F11249F5750408AF0E1F088237A
:102770004AF0EE0FFF1FBB1F661F771F881F915087
:102780005040A9F79E3F510570F014C05EC05F3FF6
:10279000ECF3983EDCF3869577956795B795F795BA
:1027A000E7959F5FC1F7FE2B880F911D9695879542
:1027B00097F9089597F99F6780E870E060E00895C1
:1027C0009FEF80EC089500240A9416161706180649
:1027D0000906089500240A94121613061406050625
:1027E0000895092E0394000C11F4882352F0BB0FB6
:1027F00040F4BF2B11F460FF04C06F5F7F4F8F4F19
:102800009F4F089557FD9058440F551F59F05F3F53
:1028100071F04795880F97FB991F61F09F3F79F002
:1028200087950895121613061406551FF2CF469584
:10283000F1DF08C0161617061806991FF1CF869506
:102840007105610508940895E894BB2766277727EA
:10285000CB0197F908955058BB27AA270ED0C1CFB6
:10286000B2DF30F0B7DF20F031F49F3F11F41EF4F7
:10287000A7CF0EF4E095E7FB9DCFE92FC3DF80F3F0
:10288000BA17620773078407950718F071F49EF56D
:10289000DBCF0EF4E0950B2EBA2FA02D0B01B90162
:1028A00090010C01CA01A0011124FF27591B99F0C6
:1028B000593F50F4503E68F11A16F040A22F232FD2
:1028C000342F4427585FF3CF469537952795A79522
:1028D000F0405395C9F77EF41F16BA0B620B730BC9
:1028E000840BBAF09150A1F0FF0FBB1F661F771F3A
:1028F000881FC2F70EC0BA0F621F731F841F48F4EF
:10290000879577956795B795F7959E3F08F0B3CF74
:102910009395880F08F09927EE0F9795879508955E
:102920000CD05FCF57DF40F04EDF30F021F45F3F37
:1029300019F040CF511189CF43CF64DF98F3992329
:10294000C9F35523B1F3951B550BBB27AA27621773
:102950007307840738F09F5F5F4F220F331F441FB8
:10296000AA1FA9F333D00E2E3AF0E0E830D09150F0
:102970005040E695001CCAF729D0FE2F27D0660FDD
:10298000771F881FBB1F261737074807AB07B0E81C
:1029900009F0BB0B802DBF01FF2793585F4F2AF032
:1029A0009E3F510568F006CF50CF5F3FECF3983E55
:1029B000DCF3869577956795B795F7959F5FC9F78F
:1029C000880F911D9695879597F90895E1E0660F18
:1029D000771F881FBB1F621773078407BA0720F091
:1029E000621B730B840BBA0BEE1F88F7E0950895FA
:1029F00011DF88F09F5790F0B92F9927B751A0F0B9
:102A0000D1F0660F771F881F991F1AF0BA95C9F782
:102A100012C0B13081F018DFB1E0089515CF672FF3
:102A2000782F8827B85F39F0B93FCCF38695779532
:102A30006795B395D9F73EF490958095709561951B
:102A40007F4F8F4F9F4F08952EDE08F48FEF08952C
:102A50002ADE880B990B0895A1E21A2EAA1BBB1B34
:102A6000FD010DC0AA1FBB1FEE1FFF1FA217B3075A
:102A7000E407F50720F0A21BB30BE40BF50B661F70
:102A8000771F881F991F1A9469F760957095809534
:102A900090959B01AC01BD01CF010895EE0FFF1F82
:102AA000881F8BBF0790F691E02D1994CF93DF9389
:102AB0008230910510F482E090E0E091A706F09159
:102AC000A80620E030E0C0E0D0E0309711F140816E
:102AD000518148175907C0F04817590761F482819E
:102AE0009381209719F09B838A832BC09093A8062B
:102AF0008093A70626C02115310519F04217530708
:102B000018F49A01BE01DF01EF010280F381E02D8C
:102B1000DCCF2115310509F1281B390B2430310593
:102B200090F412968D919C9113976115710521F087
:102B3000FB019383828304C09093A8068093A70629
:102B4000FD01329644C0FD01E20FF31F8193919382
:102B5000225031092D933C933AC02091A506309123
:102B6000A606232B41F420912202309123023093B8
:102B7000A6062093A506209120023091210221155E
:102B8000310541F42DB73EB7409124025091250202
:102B9000241B350BE091A506F091A606E217F3077A
:102BA000A0F42E1B3F0B2817390778F0AC014E5FBD
:102BB0005F4F2417350748F04E0F5F1F5093A6064E
:102BC0004093A5068193919302C0E0E0F0E0CF012D
:102BD000DF91CF9108950F931F93CF93DF930097C9
:102BE00009F48CC0FC013297138212820091A7066F
:102BF0001091A8060115110581F420813181820F01
:102C0000931F2091A5063091A6062817390779F55C
:102C1000F093A606E093A50671C0D80140E050E00D
:102C2000AE17BF0750F412962D913C911397AD014A
:102C30002115310509F1D901F3CF9D01DA01338363
:102C4000228360817181860F971F8217930769F431
:102C5000EC0128813981260F371F2E5F3F4F3183CA
:102C600020838A819B8193838283452B29F4F0936F
:102C7000A806E093A70642C01396FC93EE93129722
:102C8000ED01499159919E01240F351FE217F30779
:102C900071F480819181840F951F029611969C9307
:102CA0008E938281938113969C938E931297E0E08A
:102CB000F0E0D80112968D919C911397009719F02E
:102CC000F8018C01F6CF8D919C9198012E5F3F4FBA
:102CD000820F931F2091A5063091A6062817390769
:102CE00069F4309729F41092A8061092A70602C042
:102CF000138212821093A6060093A506DF91CF914E
:102D00001F910F9108956F927F928F929F92AF9231
:102D1000BF92CF92DF92EF92FF920F931F93CF93C8
:102D2000DF93EC01009781F4CB01DF91CF911F91EC
:102D30000F91FF90EF90DF90CF90BF90AF909F905A
:102D40008F907F906F90B2CEFC01E60FF71F9C0131
:102D500022503109E217F30708F4A8C0D9010D91F8
:102D60001C91119706171707A8F00530110508F4F4
:102D70009BC0C80104978617970708F495C00250B6
:102D80001109061B170B019311936D937C93CF01CF
:102D900022DF8AC05B01A01AB10A4C01800E911E8D
:102DA000A091A706B091A80640E050E0E12CF12CDC
:102DB000109709F44AC0A815B905D1F56D907C901B
:102DC0001197630182E0C80ED11CCA14DB0480F1A4
:102DD000A3014A195B096A0182E0C80ED11C129650
:102DE000BC9012971396AC91B5E0CB16D10440F08D
:102DF000B282A38351834083D9016D937C930AC02F
:102E00000E5F1F4FC301800F911FF90191838083D3
:102E1000EB2DFA2FE114F10431F0D7011396FC9356
:102E2000EE93129741C0F093A806E093A7063CC02A
:102E30008D919C9111974817590708F4AC017D01B9
:102E400012960D90BC91A02DB3CF8091A5069091C4
:102E5000A60688159905E1F446175707C8F480912E
:102E6000200290912102009741F48DB79EB74091C6
:102E7000240250912502841B950BE817F907B0F442
:102E8000F093A606E093A506F901718360830CC058
:102E9000CB010CDE7C01009749F0A801BE011BD0DC
:102EA000CE0199DEC70104C0CE0102C080E090E0EF
:102EB000DF91CF911F910F91FF90EF90DF90CF9016
:102EC000BF90AF909F908F907F906F90089581E01A
:102ED00090E0F89410C0FB01DC0102C001900D925B
:102EE00041505040D8F70895FB01DC0101900D924C
:102EF0000020E1F7089511E0CCE1D1E000E005C049
:102F0000802FFE01CBDD2196011DCD31D10780E060
:082F10000807B1F7F894FFCFA8
:102F18000E11110E000000000404040404150E0430
:102F2800040E150404040404080402010204080041
:102F38000000A906800000000000E1014F017A01AD
:102F48002702AB0189019D01000000004F033B03EC
:102F580060032D03340331032E0300000000C30671
:102F68004F0160035F036E616E00696E66006F76E5
:102F780066004F6265636E6965207A617A6E616387
:102F88007A6F6E6F204D656E75204E756D65723A5D
:102F9800200044485432323A20426C6164206F6405
:102FA800637A7974752074656D7065726174757271
:102FB80079207A20637A756A6E696B612100576996
:102FC8006C676F746E6F73633A200020252000547D
:102FD800656D70657261747572613A2000202A43CC
:102FE80000506F776974616E6965202D205A616998
:102FF8006E69636A616C697A6F77616E650020201B
:10300800202020576974616A212020202020004256
:103018006172746F737A20426172746F73696B00A6
:10302800506F776974616E6965202D204B6F6E69EA
:103038006563004D656E752057696C676F746E6FB8
:103048009C636920506F77696574727A61002057B4
:10305800696C676F746E6F736320506F77003C0004
:103068003E0057796E6F73693A004D656E7520574B
:10307800696C676F746E6F9C636920476C656279D1
:103088000057696C676F746E6F736320476C656275
:1030980079004D656E752053776961746C61002005
:1030A80020202053776961746C6F20202020002035
:1030B800202020204E4F43202020202020002020A8
:1030C800202020447A69656E004D656E7520506F2A
:1030D8007A696F6D752055560020202020506F7A30
:1030E800696F6D205556004F5554204131333A20B1
:1030F800004D4C38353131204F55543A2000202F9F
:10310800204D4C38353131204E61706965636965F1
:103118003A2000202F20555620286D572F636D5ECA
:1031280032293A2000202F205265616C6E652055A7
:103138005620286D572F636D5E32293A2000202FC4
:10314800204B6F72656B74613A20000D0A006D5751
:103158002F636D5E320052657A657277756172759C
:10316800002020202052657A6572777561720020F0
:1031780025004D656E752054656D706572617475B6
:10318800727900202054656D706572617475726182
:10319800004D656E7520506F6D7079002020506F5E
:1031A8006D70610057594C41435A4F4E4100506F62
:1031B8006D7061205779B3B9637A6F6E6100506F93
:1031C8006D7061205A6F7374616E69652057B3B969
:1031D800637A6F6E610020574C41435A4F4E41202D
:1031E800202000506F6D7061205A6F7374616E6992
:1031F80065205779B3B9637A6F6E610057696C6758
:103208006F746E6F736320500057696C676F746ECC
:103218006F736320470053776961746C6F00506F58
:0A3228006D706120576F646E610045
:020000023000CC
:10E000000D9489F10D94B2F10D94B2F10D94B2F129
:10E010000D94B2F10D94B2F10D94B2F10D94B2F1F0
:10E020000D94B2F10D94B2F10D94B2F10D94B2F1E0
:10E030000D94B2F10D94B2F10D94B2F10D94B2F1D0
:10E040000D94B2F10D94B2F10D94B2F10D94B2F1C0
:10E050000D94B2F10D94B2F10D94B2F10D94B2F1B0
:10E060000D94B2F10D94B2F10D94B2F10D94B2F1A0
:10E070000D94B2F10D94B2F10D94B2F10D94B2F190
:10E080000D94B2F10D94B2F10D94B2F10D94B2F180
:10E090000D94B2F10D94B2F10D94B2F10D94B2F170
:10E0A0000D94B2F10D94B2F10D94B2F10D94B2F160
:10E0B0000D94B2F10D94B2F10D94B2F10D94B2F150
:10E0C0000D94B2F10D94B2F10D94B2F10D94B2F140
:10E0D0000D94B2F10D94B2F10D94B2F10D94B2F130
:10E0E0000D94B2F141546D656761323536300041AF
:10E0F000726475696E6F206578706C6F72657220DE
:10E1000073746B3530305632206279204D4C530099
:10E11000426F6F746C6F616465723E004875683F52
:10E1200000436F6D70696C6564206F6E203D200048
:10E130004350552054797065202020203D20005FF9
:10E140005F4156525F415243485F5F3D2000415658
:10E1500052204C696243205665723D20004743437C
:10E160002056657273696F6E203D20004350552024
:10E1700049442020202020203D20004C6F7720663D
:10E18000757365202020203D20004869676820665F
:10E190007573652020203D200045787420667573D6
:10E1A00065202020203D20004C6F636B2066757336
:10E1B000652020203D20004D617220203720323024
:10E1C000313300312E362E3800342E332E350056A2
:10E1D00023202020414444522020206F7020636F70
:10E1E00064652020202020696E73747275637469E1
:10E1F0006F6E2061646472202020496E74657272B3
:10E20000757074006E6F20766563746F7200726A49
:10E210006D702020006A6D70200057686174207056
:10E220006F72743A00506F7274206E6F7420737541
:10E2300070706F72746564004D7573742062652030
:10E2400061206C6574746572002000577269747483
:10E25000696E672045450052656164696E672045B7
:10E26000450045452065727220636E743D00504F35
:10E27000525400303D5A65726F2061646472003FF1
:10E280003D43505520737461747300403D454550C3
:10E29000524F4D207465737400423D426C696E6B41
:10E2A000204C454400453D44756D70204545505215
:10E2B0004F4D00463D44756D7020464C415348001B
:10E2C000483D48656C70004C3D4C69737420492F83
:10E2D0004F20506F72747300513D51756974005234
:10E2E0003D44756D702052414D00563D73686F7707
:10E2F00020696E7465727275707420566563746FF0
:10E30000727300593D506F727420626C696E6B00BD
:10E310002A0011241FBECFEFD1E2DEBFCDBF01E046
:10E320000CBF12E0A0E0B2E0EEE1FDEF03E00BBFB6
:10E3300002C007900D92A030B107D9F712E0A0E01B
:10E34000B2E001C01D92AE30B107E1F70F9460F367
:10E350000D948DFE01E20EBF0FEF0DBF11241FBE05
:10E360000D9460F30D9400F020E030E040ED57E0B4
:10E3700005C0FA013197F1F72F5F3F4F2817390792
:10E38000C0F308959C01260F311DC901A0E0B0E043
:10E390002F5F3F4FABBFFC018791882361F08093D3
:10E3A000C6008091C00086FFFCCF8091C0008064D1
:10E3B0008093C000EACF08958DE08093C6008091DD
:10E3C000C00086FFFCCF8091C00080648093C000B5
:10E3D0008AE08093C6008091C00086FFFCCF8091C8
:10E3E000C00080648093C00008950F94C2F10F9420
:10E3F000DCF10895FC019081992359F09093C600B7
:10E400008091C00086FFFCCF8091C0008064809323
:10E41000C0003196992379F70895282F982F929567
:10E420009F70892F805D8A3308F0895F8093C600D2
:10E430008091C00086FFFCCF8091C00080648093F3
:10E44000C000822F8F70982F905D9A3308F0995FEB
:10E450009093C6008091C00086FFFCCF8091C000E1
:10E4600080648093C00008959C01FB01853691056E
:10E470001CF46330710594F0C90164E670E00F94F8
:10E480002EFE605D7F4F6093C6008091C00086FFC6
:10E49000FCCF8091C00080648093C0002B30310598
:10E4A00014F43297B4F0C90164E670E00F942EFEC4
:10E4B0006AE070E00F942EFE605D7F4F6093C600AF
:10E4C0008091C00086FFFCCF8091C0008064809363
:10E4D000C000C9016AE070E00F942EFEC0968093E0
:10E4E000C6008091C00086FFFCCF8091C000806490
:10E4F0008093C00008951F93182F8EE692EE60E07F
:10E500000F94C2F11093C6008091C00086FFFCCF2B
:10E510008091C00080648093C0000F94DCF11F9153
:10E5200008952F923F924F925F926F927F928F92B7
:10E530009F92AF92BF92CF92DF92EF92FF920F9392
:10E540001F93DF93CF93CDB7DEB762970FB6F894E2
:10E55000DEBF0FBECDBF382E622ECA01DB015C01CB
:10E560006D01772420E2222E2E010894411C511CBB
:10E570008BC081E0A81680E0B80681E0C80680E084
:10E58000D80628F0C601AA27BB270F940DF2BB2797
:10E59000AD2D9C2D8B2D0F940DF28A2D0F940DF225
:10E5A0002092C6008091C00086FFFCCF8091C00001
:10E5B00080648093C0009DE29093C6008091C0006B
:10E5C00086FFFCCF8091C00080648093C0002092C1
:10E5D000C6008091C00086FFFCCF8091C00080649F
:10E5E0008093C00019828601750188249924A1E0D6
:10E5F0003A1651F03A1620F0B2E03B1661F409C029
:10E600000BBFF701779007C0C7010F9477FE782EF4
:10E6100002C0F7017080872D0F940DF22092C60082
:10E620008091C00086FFFCCF8091C0008064809301
:10E63000C000872D8052F401EF70F0708F3520F408
:10E64000E40DF51D708204C0E40DF51D8EE280839B
:10E650000894E11CF11C011D111D0894811C911CE2
:10E6600090E18916910409F0C2CF80E190E0A0E02A
:10E67000B0E0A80EB91ECA1EDB1E198AC2010F9493
:10E68000FAF10F94DCF16A94662009F072CF629679
:10E690000FB6F894DEBF0FBECDBFCF91DF911F91B3
:10E6A0000F91FF90EF90DF90CF90BF90AF909F9031
:10E6B0008F907F906F905F904F903F902F90089534
:10E6C0002F923F924F925F926F927F928F929F9282
:10E6D000AF92BF92CF92DF92EF92FF920F931F9370
:10E6E000DF93CF93CDB7DEB7CD53D1400FB6F894BB
:10E6F000DEBF0FBECDBF01E20EBF0FEF0DBF94B75F
:10E70000F894A89514BE80916000886180936000A1
:10E7100010926000789493FF05C0E0910002F091A0
:10E7200001021995279A2F9A8091C00082608093E8
:10E73000C00080E18093C40088E18093C1000000A4
:10E74000EE24FF24870144E0A42EB12CCC24DD2448
:10E7500024C0C5010197F1F70894E11CF11C011DCB
:10E76000111D21E2E2162EE4F20620E0020720E06D
:10E77000120718F031E0C32ED12CC801B70127ECE5
:10E780003BE140E050E00F9441FE611571058105C9
:10E79000910519F485B1805885B98091C00087FD35
:10E7A00003C0C114D104A9F2A6014F5F5F4FC25E3E
:10E7B000DE4F59834883CE51D140C25EDE4F8881FF
:10E7C0009981CE51D140019711F00D9410FEC05D9A
:10E7D000DE4F19821882C053D14060E0C15DDE4F28
:10E7E0001882CF52D14088249924C35DDE4F19820C
:10E7F0001882CD52D140C05EDE4F188219821A8233
:10E800001B82C052D140CE5CDE4F188219821A8220
:10E810001B82C253D140EE24FF2487010BBFF701B6
:10E8200007911691C45CDE4F19830883CC53D14005
:10E830000D940BFEC25EDE4F28813981CE51D1404E
:10E840002130310509F52091C600C25EDE4F1982E4
:10E850001882CE51D14022C02F5F3F4F4F4F5F4FA4
:10E86000213082E138078AE7480780E0580780F0C6
:10E87000C45CDE4FE881F981CC53D140EF5FFF4F9C
:10E8800019F0EE27FF27099420E030E040E050E047
:10E890008091C00087FFE0CF2091C600C35DDE4FAE
:10E8A00048815981CD52D1404F5F5F4FC35DDE4FEC
:10E8B00059834883CD52D140213209F063C64A3092
:10E8C000510508F05FC60894811C911C53E0851621
:10E8D000910409F059C600E010E018C081E280936D
:10E8E000C6008091C00086FFFCCF8091C00080648C
:10E8F0008093C0002F5F3F4F2931310579F70F9486
:10E90000DCF10F5F1F4F0530110519F020E030E0FA
:10E91000E5CF10920A0210920B0210920C02109294
:10E920000D02109206021092070210920802109235
:10E930000902109202021092030210920402109235
:10E9400005028FEE90EE60E00F94F5F180E191EE1C
:10E9500060E00F94C2F18091C00087FFFCCF9091DE
:10E96000C600903608F09F759032B8F09093C600BC
:10E970008091C00086FFFCCF8091C00080648093AE
:10E98000C000A0E2A093C6008091C00086FFFCCF2B
:10E990008091C00080648093C000983409F4D7C18E
:10E9A0009934B8F4923409F459C1933458F490333B
:10E9B00019F1903308F4E3C59F33A1F1903409F0C5
:10E9C000DEC5BDC0953409F470C1963409F0D7C5D1
:10E9D00098C1923509F42BC2933538F49C3409F46C
:10E9E000F5C1913509F0CBC518C2963509F445C279
:10E9F000993509F0C4C567C483E792EE62E00F94CD
:10EA0000F5F110920602109207021092080210927D
:10EA1000090210920A0210920B0210920C0210923C
:10EA20000D0213C18FE792EE62E00F94F5F18FEEC5
:10EA300090EE60E00F94F5F181E291EE60E00F94CA
:10EA4000C2F187EB91EE60E00F94F5F180E391EE77
:10EA500060E00F94C2F184EE90EE60E00F94F5F167
:10EA60008FE391EE60E00F94C2F186E090E061E008
:10EA700070E00F9434F20F94DCF18DE591EE60E0DC
:10EA80000F94C2F189EC91EE60E00F94F5F18EE401
:10EA900091EE60E00F94C2F183EC91EE60E00F9490
:10EAA000F5F18CE691EE60E00F94C2F18EE10F94E7
:10EAB0000DF288E90F940DF281E00F940DF20F949E
:10EAC000DCF18BE791EE60E00F94C2F119E0E0E039
:10EAD000F0E010935700E4918E2F0F940DF20F94F5
:10EAE000DCF18AE891EE60E00F94C2F1E3E0F0E03F
:10EAF00010935700E4918E2F0F940DF20F94DCF1D8
:10EB000089E991EE60E00F94C2F1E2E0F0E0109349
:10EB10005700E4918E2F0F940DF20F94DCF188EAE8
:10EB200091EE60E00F94C2F1E1E0F0E01093570045
:10EB30001491812F0F940DF20F94DCF107CF8BE825
:10EB400092EE62E00F94F5F18BE492EE60E00F94A8
:10EB5000F5F10F94DCF100E010E019C0C8016F2D51
:10EB60000F947FFEFF2031F489E492EE60E00F9471
:10EB7000C2F10BC0F092C6008091C00086FFFCCFAE
:10EB80008091C00080648093C0000F5F1F4FC80158
:10EB900081519F41A0E0B0E0ABBFFC01F790BAE229
:10EBA000FB1621F0E2E000301E07C1F60F94DCF105
:10EBB0000F94DCF187E592EE60E00F94F5F10F948D
:10EBC000DCF1CC24DD2400E010E01EC0C8010F946D
:10EBD00077FEF82E882331F489E492EE60E00F94FA
:10EBE000C2F10BC08093C6008091C00086FFFCCFAD
:10EBF0008091C00080648093C000FE1419F00894D6
:10EC0000C11CD11C0F5F1F4FC80181519F41A0E063
:10EC1000B0E0ABBFFC01E790FAE2EF1621F022E092
:10EC20000030120799F60F94DCF10F94DCF182E6C4
:10EC300092EE60E00F94C2F1C60161E070E00F94C3
:10EC400034F20F94DCF10F94DCF110920202109276
:10EC50000302109204021092050278CE89E992EE26
:10EC600062E00F94F5F1279A2F9A16C02F9880E052
:10EC700090E0E0EDF7E03197F1F7019684369105E9
:10EC8000C1F72F9A80E090E0E0EDF7E03197F1F7DF
:10EC9000019684369105C1F78091C00087FFE6CFC9
:10ECA0008091C00087FFFCCF64C485EA92EE62E0E9
:10ECB0000F94F5F140910202509103026091040219
:10ECC0007091050281E020E10F9491F2809102029F
:10ECD00090910302A0910402B091050280509F4FD1
:10ECE000AF4FBF4F8093020290930302A0930402A0
:10ECF000B093050280509041A040B04008F426CE69
:10ED0000A4CF83EB92EE62E00F94F5F140910602FE
:10ED100050910702609108027091090280E020E1A1
:10ED20000F9491F28091060290910702A09108023F
:10ED3000B091090280509F4FAF4FBF4F80930602A2
:10ED400090930702A0930802B0930902FFCD80ECD4
:10ED500092EE62E00F94F5F183E792EE60E00F949B
:10ED6000F5F18FE792EE60E00F94F5F18BE892EE0B
:10ED700060E00F94F5F189E992EE60E00F94F5F10F
:10ED800085EA92EE60E00F94F5F183EB92EE60E09D
:10ED90000F94F5F180EC92EE60E00F94F5F187ECC2
:10EDA00092EE60E00F94F5F188ED92EE60E00F9442
:10EDB000F5F18FED92EE60E00F94F5F18AEE92EEB0
:10EDC00060E00F94F5F183E093EEBDCD87EC92EE19
:10EDD00062E00F94F5F181E40F947BF282E40F94EA
:10EDE0007BF283E40F947BF284E40F947BF285E45E
:10EDF0000F947BF286E40F947BF287E40F947BF20E
:10EE000088E40F947BF28AE40F947BF28BE40F94F6
:10EE10007BF28CE40F947BF299CD88ED92EE62E068
:10EE20000F94F5F1772473948824992409C48FED05
:10EE300092EE62E00F94F5F140910A0250910B02BC
:10EE400060910C0270910D0282E020E10F9491F22A
:10EE500080910A0290910B02A0910C02B0910D02D8
:10EE600080509F4FAF4FBF4F80930A0290930B0289
:10EE7000A0930C02B0930D0269CD8AEE92EE62E08F
:10EE80000F94F5F184EE90EE60E00F94F5F18FECC5
:10EE900091EE60E00F94F5F1662477244301CC5D98
:10EEA000DE4F19821882C452D140D401C301B695F5
:10EEB000A79597958795CA5DDE4F88839983AA8326
:10EEC000BB83C652D140CC5DDE4FA881B981C4520C
:10EED000D1401196CC5DDE4FB983A883C452D14096
:10EEE000CD0162E070E00F9434F2B0E2B093C6005E
:10EEF0008091C00086FFFCCF8091C0008064809329
:10EF0000C000EDE2E093C6008091C00086FFFCCF18
:10EF10008091C00080648093C000F0E2F093C6004E
:10EF20008091C00086FFFCCF8091C00080648093F8
:10EF3000C000CA5DDE4FE880F9800A811B81C6529D
:10EF4000D140BB27A12F902F8F2D0F940DF2CA5DBA
:10EF5000DE4F8881C652D1400F940DF2B0E2FB2EF5
:10EF6000F092C6008091C00086FFFCCF8091C00067
:10EF700080648093C0000DE30093C6008091C000C0
:10EF800086FFFCCF8091C00080648093C00010E2B7
:10EF90001093C6008091C00086FFFCCF8091C00016
:10EFA00080648093C0008BBEF3012791C65DDE4F65
:10EFB0002883CA52D140A22EBB24CC24DD2408943D
:10EFC000611C711C811C911C8BBEF3018791282E42
:10EFD0003324442455240894611C711C811C911C09
:10EFE0008BBEF3013791C55DDE4F3883CB52D140E4
:10EFF0000894611C711C811C911C8BBEF30147910C
:10F00000C45DDE4F4883CC52D140ADEFEA2EAFEF66
:10F01000FA2EAFEF0A2FAFEF1A2F6E0C7F1C801E57
:10F02000911E142D032DF22CEE24EA0CFB1C0C1D5A
:10F030001D1D0F940DF220E22093C6008091C000A8
:10F0400086FFFCCF8091C00080648093C000C65DC5
:10F05000DE4F8881CA52D1400F940DF230E23093D6
:10F06000C6008091C00086FFFCCF8091C000806404
:10F070008093C000C45DDE4F8881CC52D1400F9494
:10F080000DF240E24093C6008091C00086FFFCCFA5
:10F090008091C00080648093C000C55DDE4F888190
:10F0A000CB52D1400F940DF250E25093C6008091A4
:10F0B000C00086FFFCCF8091C00080648093C000B8
:10F0C0008FEFE8168FEFF80680E0080780E018075A
:10F0D00031F484E092EE60E00F94C2F1DFC0D80119
:10F0E000C7018070907CA070B0708050904CA040A0
:10F0F000B040D1F52FEF3FE340E050E0E222F322B1
:10F1000004231523CA5DDE4FA880B980CA80DB8046
:10F11000C652D140AE0CBF1CC01ED11EAA0CBB1CD7
:10F12000CC1CDD1C8EE092EE60E00F94C2F1BB2798
:10F13000A12F902F8F2D0F940DF28E2D0F940DF285
:10F1400030E23093C6008091C00086FFFCCF8091F2
:10F15000C00080648093C0004EE34093C60080915D
:10F16000C00086FFFCCF87C08EE09EEFA0E0B0E03D
:10F17000E822F9220A231B239CE0E91694E9F90608
:10F1800090E0090790E0190709F088C0C45DDE4FE0
:10F19000A881CC52D140EA2EFF2400E010E0102FCD
:10F1A0000F2DFE2CEE24C55DDE4FB881CB52D14031
:10F1B000EB0EF11C011D111DD601C501817090706F
:10F1C000A070B070DC0199278827E80EF91E0A1F8D
:10F1D0001B1F20EF30E040E050E0A222B322C42207
:10F1E000D52241E1AA0CBB1CCC1CDD1C4A95D1F7F1
:10F1F000EA0CFB1C0C1D1D1D81E090E0A0E0B0E0BE
:10F20000282239224A225B2235E1220C331C441C7D
:10F21000551C3A95D1F7E20CF31C041D151D57013E
:10F220006801AA0CBB1CCC1CDD1C85E192EE60E0E1
:10F230000F94C2F1C801AA27BB270F940DF2BB2778
:10F24000A12F902F8F2D0F940DF28E2D0F940DF274
:10F2500090E29093C6008091C00086FFFCCF809121
:10F26000C00080648093C000AEE3A093C60080918C
:10F27000C00086FFFCCF8091C00080648093C000F6
:10F28000C601AA27BB270F940DF2BB27AD2D9C2DDD
:10F290008B2D0F940DF28A2D0F940DF20F94DCF14B
:10F2A000CC5DDE4FE881F981C452D140F99709F471
:10F2B0004DCBF4E0EF2EF12C012D112D6E0C7F1CA7
:10F2C000801E911EF2CD83E093EE62E00F94F5F183
:10F2D0008AE192EE60E00F94C2F18091C00087FF56
:10F2E000FCCF1091C6001F751093C6008091C0001E
:10F2F00086FFFCCF8091C00080648093C0000F9493
:10F30000DCF1812F81548A3108F036C1163409F4BA
:10F3100095C0173490F4133409F44EC0143430F40B
:10F320001134F1F0123409F01DC130C0143409F465
:10F3300059C0153409F016C16BC01A3409F4C4C0A1
:10F340001B3438F4173409F48FC0183409F00AC19B
:10F35000A1C01B3409F4D2C01C3409F003C1E8C0B9
:10F360008FEF81B90DC082B1809582B980E090E0C5
:10F37000E0EDF7E03197F1F70196883C9105C1F790
:10F380008091C00087FFEFCF12B8EFC08FEF84B934
:10F390000DC085B1809585B980E090E0E0EDF7E0A3
:10F3A0003197F1F70196883C9105C1F78091C00033
:10F3B00087FFEFCF15B8D9C08FEF87B90DC088B1DF
:10F3C000809588B980E090E0E0EDF7E03197F1F7C3
:10F3D0000196883C9105C1F78091C00087FFEFCF6F
:10F3E00018B8C3C08FEF8AB90DC08BB180958BB9A7
:10F3F00080E090E0E0EDF7E03197F1F70196883C8E
:10F400009105C1F78091C00087FFEFCF1BB8ADC059
:10F410008FEF8DB90DC08EB180958EB980E090E0F0
:10F42000E0EDF7E03197F1F70196883C9105C1F7DF
:10F430008091C00087FFEFCF1EB897C08FEF80BBD1
:10F440000DC081B3809581BB80E090E0E0EDF7E0F6
:10F450003197F1F70196883C9105C1F78091C00082
:10F4600087FFEFCF11BA81C08FEF83BB0DC084B38C
:10F47000809584BB80E090E0E0EDF7E03197F1F714
:10F480000196883C9105C1F78091C00087FFEFCFBE
:10F4900014BA6BC08FEF809301010FC080910201FD
:10F4A00080958093020180E090E0E0EDF7E03197F5
:10F4B000F1F70196883C9105C1F78091C00087FF64
:10F4C000EDCF1092020151C08FEF809304010FC065
:10F4D0008091050180958093050180E090E0E0ED4A
:10F4E000F7E03197F1F70196883C9105C1F78091DB
:10F4F000C00087FFEDCF1092050137C08FEF8093DA
:10F5000007010FC08091080180958093080180E079
:10F5100090E0E0EDF7E03197F1F70196883C910536
:10F52000C1F78091C00087FFEDCF109208011DC088
:10F530008FEF80930A010FC080910B01809580931B
:10F540000B0180E090E0E0EDF7E03197F1F70196F4
:10F55000883C9105C1F78091C00087FFEDCF1092E4
:10F560000B0103C085E292EEEEC98091C00087FFD7
:10F57000FCCF8091C600EAC988E392EEE4C98CE131
:10F5800091EEE1C988249924933011F1943028F444
:10F59000913089F09230B8F408C0953061F195301F
:10F5A000F0F0963009F048C043C02B3109F042C951
:10F5B00091E06BE13FC96227C15DDE4F2883CF52E6
:10F5C000D14092E037C9B22FA0E0622793E032C960
:10F5D000822F90E0A82BB92B622794E02BC92E3004
:10F5E00009F039C3622795E0C05DDE4F19821882A9
:10F5F000C053D1401FC9E1E0F0E0EC0FFD1FC05D3A
:10F60000DE4F08811981C053D140E00FF11F2083E4
:10F610000F5F1F4FC05DDE4F19830883C053D14079
:10F6200062270A171B0709F005C9D80196E002C92D
:10F63000261709F010C303C0973009F0FBC87724E0
:10F640009981933109F412C19431C8F4963009F4C8
:10F65000D8C0973050F4923009F406C1933009F4C1
:10F660006DC0913009F059C253C0913109F477C08F
:10F67000923108F0BBC0903109F04FC2F5C098310B
:10F6800009F487C0993150F4953109F4EFC09531F0
:10F6900008F4C6C1963109F040C2C2C19A3109F4DA
:10F6A0006CC09A3108F491C09B3109F45BC09D3164
:10F6B00009F033C29D81903359F48F81882311F46E
:10F6C0009EE11CC0813011F091E018C098E916C08D
:10F6D000892F807591F0903539F4E0E0F0E089E011
:10F6E0008093570094910AC0983539F4E3E0F0E034
:10F6F00089E080935700949101C090E01A821B82A8
:10F700008D818C831D829E831F8227E030E009C299
:10F710001A8288E08B8381E48C8386E58D8382E581
:10F720008E8389E48F8383E5888780E589878FE5E9
:10F730008A8782E38B872BE030E0F3C18A818139AD
:10F7400041F0823941F0803911F48FE005C080E04A
:10F7500003C082E001C08AE01A828B8344C0772410
:10F76000739482C08D81882311F48EE12CC0813086
:10F7700011F081E028C088E926C01A82E1E0F0E0BB
:10F7800089E08093570084918B831C8224E030E0D1
:10F79000C8C18B81803589F48C81883039F4E2E0EE
:10F7A000F0E089E08093570084910DC0E0E0F0E044
:10F7B00089E080935700849106C0E3E0F0E089E09F
:10F7C0008093570084911A82DFCF8D81836C99E0FA
:10F7D000E1E0F0E0082E90935700E89507B600FCB2
:10F7E000FDCF1A821B8223E030E09BC180EC8A832C
:10F7F000CE5CDE4F188219821A821B82C253D1401E
:10F800008EC18A8190E0A0E0B0E0582F44273327D2
:10F8100022278B8190E0A0E0B0E0DC0199278827C7
:10F82000282B392B4A2B5B2B8D8190E0A0E0B0E098
:10F83000282B392B4A2B5B2B8C8190E0A0E0B0E089
:10F84000BA2FA92F982F8827282B392B4A2B5B2BCF
:10F85000220F331F441F551FC05EDE4F288339839C
:10F860004A835B83C052D1401A8259C13A81C95C34
:10F87000DE4F3883C753D140CA5CDE4F1882C6536F
:10F88000D1408B81C82EDD24CA5CDE4F488159816E
:10F89000C653D140C42AD52A933109F082C0CE5C28
:10F8A000DE4F88819981AA81BB81C253D1408050AB
:10F8B000904CA340B04030F583E0CE5CDE4FE88052
:10F8C000F9800A811B81C253D140F70100935B008C
:10F8D00080935700E89507B600FCFDCFCE5CDE4F65
:10F8E000088119812A813B81C253D14000501F4FAA
:10F8F0002F4F3F4FCE5CDE4F088319832A833B8313
:10F90000C253D140C05EDE4F488159816A817B81FC
:10F91000C052D140DE011B9631E08C9111962C91A2
:10F9200011971296C75CDE4F2883C953D140C85C3B
:10F93000DE4F1882C853D14090E0C85CDE4FE881AA
:10F94000F981C853D1408E2B9F2B0C01FA01609393
:10F950005B0030935700E89511244E5F5F4F6F4F67
:10F960007F4F0EEFE02E0FEFF02ECE0CDF1CC114F8
:10F97000D10499F685E0C05EDE4F088119812A81A5
:10F980003B81C052D140F80120935B008093570027
:10F99000E89507B600FCFDCF81E180935700E8951C
:10F9A00035C0C05EDE4F88819981AA81BB81C0527B
:10F9B000D140B695A795979587957C018601ABE0D8
:10F9C000AA2EB12CAC0EBD1E0BC0D5016D915D01F0
:10F9D000C7010F947FFE0894E11CF11C01501040F8
:10F9E0000115110591F7A60160E070E0440F551F65
:10F9F000661F771FC05EDE4FE880F9800A811B8199
:10FA0000C052D1404E0D5F1D601F711F1A82C05E33
:10FA1000DE4F488359836A837B83C052D1407FC0C5
:10FA2000FA80C55CDE4FF882CB53D140C65CDE4F16
:10FA30001882CA53D1408B81C82EDD24C65CDE4FAC
:10FA400008811981CA53D140C02AD12A1A828981DA
:10FA5000BE016D5F7F4F843121F59601C05EDE4FA0
:10FA6000E880F9800A811B81C052D1400BBFF701A9
:10FA700087919691DB018C9311969C936E5F7F4FDB
:10FA8000D801C7010296A11DB11DC05EDE4F88835B
:10FA90009983AA83BB83C052D14022503040F1F6F3
:10FAA00036C0C05EDE4F288139814A815B81C052F9
:10FAB000D1400894C108D108760100E010E0089414
:10FAC000C11CD11C0894E11CF11C011D111DE20E8A
:10FAD000F31E041F151F21BDBB27A52F942F832FB5
:10FAE00082BD2F5F3F4F4F4F5F4FF89A80B5DB01CC
:10FAF0008D93BD012E153F054007510761F7C05E8C
:10FB0000DE4F288339834A835B83C052D1409601FC
:10FB10002D5F3F4FFB01108204C080EC8A8322E0FE
:10FB200030E08BE18093C6008091C00086FFFCCF5F
:10FB30008091C00080648093C000C15DDE4FF88179
:10FB4000CF52D140F093C6008091C00086FFFCCF19
:10FB50008091C00080648093C000432F3093C60022
:10FB60008091C00086FFFCCF8091C00080648093AC
:10FB7000C000922F2093C6008091C00086FFFCCF6A
:10FB80008091C00080648093C0008EE08093C600A6
:10FB90008091C00086FFFCCF8091C000806480937C
:10FBA000C00065E1C15DDE4FE880CF52D1406E25D7
:10FBB00069276427FE01319610C090819093C6009A
:10FBC0008091C00086FFFCCF31968091C000806498
:10FBD0008093C0006927215030402115310569F715
:10FBE0006093C6008091C00086FFFCCF8091C0006A
:10FBF00080648093C00085B1805885B9772081F4F6
:10FC0000C15DDE4F0881CF52D1400F5FC15DDE4F35
:10FC10000883CF52D14090E0A0E0B0E00D941AF4F8
:10FC200027982F9880E090E020ED37E0F901319798
:10FC3000F1F7019684369105C9F700008091C00064
:10FC40008D7F8093C00081E180935700E895EE2777
:10FC5000FF270994FFCF90E00D941AF497FB092E2B
:10FC600007260AD077FD04D02ED006D000201AF443
:10FC7000709561957F4F0895F6F7909581959F4F08
:10FC80000895A1E21A2EAA1BBB1BFD010DC0AA1FDD
:10FC9000BB1FEE1FFF1FA217B307E407F50720F0F5
:10FCA000A21BB30BE40BF50B661F771F881F991F70
:10FCB0001A9469F760957095809590959B01AC01B9
:10FCC000BD01CF010895AA1BBB1B51E107C0AA1FAC
:10FCD000BB1FA617B70710F0A61BB70B881F991FED
:10FCE0005A95A9F780959095BC01CD010895F99991
:10FCF000FECF92BD81BDF89A992780B50895262F31
:10FD0000F999FECF1FBA92BD81BD20BD0FB6F89400
:0EFD1000FA9AF99A0FBE01960895F894FFCF63
:040000033000E000E9
:00000001FF
